S00D0000446F416E322E7372656383
S11300000C942A000C9409010C9447000C944700AA
S11300100C9447000C9447000C9447000C94470040
S11300200C9447000C9447000C9447000C94470030
S11300300C9447000C9447000C9447000C94470020
S11300400C9447000C9447000C9447000C94470010
S11300500C94470011241FBECFE5D4E0DEBFCDBF12
S113006010E0A0E6B0E0E4E5F5E002C005900D92F2
S1130070A038B107D9F720E0A0E8B0E001C01D9294
S1130080A13AB207E1F70E94FD010C94A8020C9476
S1130090000081B3806181BB82B38F7E82BB8FE31A
S11300A09CE90197F1F700C0000082B3806182BB34
S11300B0089581B38F7E81BB8499FECF849BFECF4C
S11300C08499FECF089520E030E019C0849BFECFD0
S11300D080E58A95F1F7849B09C08091800090E0C7
S11300E0880F991F81608093800005C080918000F3
S11300F0880F809380008499FECF2F5F3F4F283074
S1130100310524F380918000089585BB82B38F7BF1
S113011082BB82B38F7D82BB82B3806882BB82E064
S11301208A95F1F700C082B38F7782BB8FE697E19F
S11301300197F1F700C00000089585BB82B3806485
S113014082BB82B38F7D82BB82B3806882BB82E034
S11301508A95F1F700C082B38F7782BB8FEC97E06A
S11301600197F1F700C00000089581B3806E81BB50
S11301708FEF84BB8FE39CE90197F1F700C0000087
S113018088E30E9485008CE00E94850086E00E943E
S1130190850081E00E94850080E80E948500089522
S11301A00F931F93CF93DF938C01C0E0D0E003C083
S11301B00E949D002196F801EC0FFD1F80818111A2
S11301C0F7CFDF91CF911F910F910895CF93DF93D4
S11301D0EA01811108C0603130F4862F8F70806885
S11301E00E94850009C0813039F4603128F4862FDB
S11301F08F70806C0E948500CE010E94D000DF9138
S1130200CF91089581E00E94850080E80E948500D6
S113021008951F920F920FB60F9211242F938F936C
S11302209F938091830090918400019681709078CF
S1130230992324F401978E6F9F6F01969093840005
S1130240809383002FE788E391E021508040904021
S1130250E1F700C000009F918F912F910F900FBE86
S11302600F901F90189513C00E944D028091810039
S1130270909182009C012F5F3F4F30938200209326
S11302808100FC01E057FF4F20918F0020830E94E2
S1130290490280938F008D3039F7109282001092BA
S11302A0810008958091830090918400019709F062
S11302B08CC00E9449000E9459000E9463008093F0
S11302C08D000E94630080938A000E9463008093E3
S11302D08C000E94630080938E000E9463008093D0
S11302E08B0090918D0020918A0030E0290F311D00
S11302F090918C00290F311D90918E00290F311D92
S113030090E02817390729F080E690E00E94D00099
S113031053C046E650E060E080E00E94E600809131
S11303208D004AE065E870E090E00E94730245E8C1
S113033050E067E080E00E94E6008FE690E00E94D3
S1130340D00080918A004AE065E870E090E00E9465
S1130350730285E890E00E94D00081E790E00E945B
S1130360D00043E750E060E081E00E94E600809125
S11303708C004AE065E870E090E00E94730245E872
S113038050E067E081E00E94E6008FE690E00E9482
S1130390D00080918E004AE065E870E090E00E9411
S11303A0730285E890E00E94D0008FED0E949D00CA
S11303B08CE790E00E94D0002FEF89E698E121506D
S11303C080409040E1F700C00000089580918300D0
S11303D090918400892B81F40E94330140E950E01C
S11303E060E080E00E94E6000E94330140E950E0B2
S11303F060E081E00E94E600089581B381BB82B38E
S1130400846082BB80E48BBF83E085BF789487B32C
S1130410806887BB88B388BB0E94B5000E94020134
S113042060E875E280E090E00E941B020E94E60111
S11304300E945201FBCF2AB128612AB920B526684F
S113044020BDDC01CB01880F991FAA1FBB1F880F99
S1130450991FAA1FBB1F9C01AD01220F331F441F0C
S1130460551F220F331F441F551F60E072E18AE7B6
S113047090E00E9451028FEF820F89B9DA01C9011D
S11304800197A109B109892F9A2FAB2FBB2780BDF2
S113049008955F9BFECF8CB108955D9BFECF8CB910
S11304A00895A1E21A2EAA1BBB1BFD010DC0AA1FB1
S11304B0BB1FEE1FFF1FA217B307E407F50720F0C9
S11304C0A21BB30BE40BF50B661F771F881F991F44
S11304D01A9469F760957095809590959B01AC018D
S11304E0BD01CF010895BB274A3031F4992322F48A
S11304F0BDE2909581959F4F0C947F02BB27FB0131
S11305005527AA27880F991FAA1FA41710F0A41B08
S113051083955051B9F7A05DAA3308F0A95DA19362
S1130520009779F7B111B1931192CB010C94980211
S1130530DC01FC01672F71917723E1F7329704C046
S11305407C916D9370836291AE17BF07C8F30895D1
S1070550F894FFCF49
S11305544572726F720048756D693A202020002E2E
S113056400250054656D703A2020200043200000CB
S9030000FC
